:0400000068EF03F0B2
:08000800046ED8CF05F0E0CF33
:1000100006F00001E9CF0CF0EACF07F0E1CF08F0DD
:10002000E2CF09F0D9CF0AF0DACF0BF0F3CF12F01C
:10003000F4CF13F0FACF14F0F5CF15F0F6CF16F099
:10004000F7CF17F000C00EF001C00FF002C010F0A3
:1000500003C011F09DAA30EF00F09EBA76EF00F0D9
:100060000EC000F00FC001F010C002F011C003F08C
:100070000CC0E9FF07C0EAFF078E08C0E1FF09C016
:10008000E2FF0AC0D9FF0BC0DAFF12C0F3FF13C0B2
:10009000F4FF14C0FAFF15C0F5FF16C0F6FF17C035
:1000A000F7FF045006C0E0FF05C0D8FF10000F0E98
:1000B000C26FAE0EC16FC1C0E9FFC2C0EAFFEFCF91
:1000C000C3F0C3C001F07BEF00F09F9FA1517F08F8
:1000D0000BE39F519F2B036A1F0FE96E000E032055
:1000E000EA6EC1C0EFFFA12B80EF00F0F29CF29E00
:1000F000F2BEFDD7DCD701C0C0F0C0C0C1F0E5D76B
:10010000C00EF2129E9A30EF00F0AA5305E10F0ED6
:10011000AE6F920EAD6F0BD0AA2D05D00F0EAE6F45
:10012000930EAD6F04D00F0EAE6F940EAD6FABC0DB
:10013000E9FFACC0EAFFEFCFAFF0010EAB25E96EEF
:10014000000EAC21EA6EEF50010B010808E1ADC0D2
:10015000E9FFAEC0EAFFEF50AF11EF6E08D0ADC0BF
:10016000E9FFAEC0EAFFAF51FF0AEF14EF6E1200D5
:10017000BB51BD03F3CF01F0F4CF00F0BE03F35049
:100180000026BC51BD03F3500020026E12000F0E7A
:10019000B86FAF0EB76F0F0EBA6FB00EB96FB7C0B2
:1001A000E9FFB8C0EAFFB5C0EFFFB9C0E9FFBAC0C8
:1001B000EAFFB6C0EFFF1B52D8B4A9D01E6A1BC01D
:1001C0001DF0B5C000F0B6C003F09C0EB65D03E1B3
:1001D0003F0E005C2FE0270E035C03E10F0E005C76
:1001E00037E0130E035C03E1870E005C3FE0040E72
:1001F000035C03E1E10E005C46E0040E035C03E1F6
:100200007F0E005C4DE0020E035C03E1700E005CAB
:1002100054E0010E035C03E1380E005C5BE0035028
:1002200003E1CF0E005C63E0035003E1670E005C66
:1002300067E06DD01EC0BCF01DC0BBF0060EBE6FE7
:10024000810EBD6F95DF02C01EF001C01DF05FD0B2
:100250001EC0BCF01DC0BBF0010EBE6F9F0EBD6F77
:1002600087DF02C01EF001C01DF051D01EC0BCF0DF
:100270001DC0BBF0BE6BD00EBD6F7ADF02C01EF09A
:1002800001C01DF044D01EC0BCF01DC0BBF0BE6B51
:10029000340EBD6F6DDF02C01EF001C01DF037D0FF
:1002A0001EC0BCF01DC0BBF0BE6B2F0EBD6F60DF6B
:1002B00002C01EF001C01DF02AD01EC0BCF01DC03F
:1002C000BBF0BE6B1A0EBD6F53DF02C01EF001C043
:1002D0001DF01DD01EC0BCF01DC0BBF0BE6B0D0ECE
:1002E000BD6F46DF02C01EF001C01DF010D01D36EC
:1002F0001E361D361E361D361E36F80E1D1607D04C
:100300001D361E361D361E36FC0E1D1600D0B3EFF0
:1003100001F00F0EAD6FAC0EAC6F0F0EAF6FAB0EEA
:10032000AE6F020EAA25E96E000EAB21EA6EEFCF8A
:10033000B0F0040EAA25E96E000EAB21EA6EEFCFF5
:100340001CF0030EAA25E96E000EAB21EA6EEFCF7A
:100350001BF0AAC0E9FFABC0EAFFECCFB6F0ED524C
:10036000EFCFB5F014D7050EAA25E96E000EAB212C
:10037000EA6EEF50200BB16F050EAA25E96E000E54
:10038000AB21EA6EEF50100BB26FB0531FE11C525D
:100390000EE1ACC0E9FFADC0EAFFB1510409EF6E58
:1003A000AEC0E9FFAFC0EAFFB2C0EFFF0ED0ACC0F5
:1003B000E9FFADC0EAFFB1514409EF6EAEC0E9FFFD
:1003C000AFC0EAFFB2514109EF6E0ED0ACC0E9FFF9
:1003D000ADC0EAFFB1514409EF6EAEC0E9FFAFC056
:1003E000EAFFB2514109EF6E41EF02F00F0EAC6F20
:1003F000AB0EAB6FAA2D0ED0ABC0E9FFACC0EAFFCD
:10040000EFCFADF0AD8FABC0E9FFACC0EAFFADC040
:10041000EFFF0DD0ABC0E9FFACC0EAFFEFCFADF00E
:10042000AD9FABC0E9FFACC0EAFFADC0EFFF44EF4A
:1004300002F0A80EA26FA393A391020EAA6FAC6B59
:10044000A20EAB6F62DE570EA26FA381020EAA6FDF
:10045000AC6BA20EAB6F59DE800EA26FA391010EA2
:10046000AA6FAC6BA20EAB6F50DEA56B670EA46FCC
:10047000A66BA76BA86B300EA96FAB6BA40EAA6F0F
:1004800048D7010EAA6FB2D77EEF03F0A85309E157
:100490000F0EAF6F800EAE6F0F0EAD6F890EAC6F8B
:1004A00013D0A82D09D00F0EAF6F810EAE6F0F0EB7
:1004B000AD6F8A0EAC6F08D00F0EAF6F820EAE6FAD
:1004C0000F0EAD6F8B0EAC6FACC0E9FFADC0EAFF95
:1004D000EFCFABF0AA5309E0A951AB13AEC0E9FFCF
:1004E000AFC0EAFFABC0EFFF09D0A951FF0AAB17BD
:1004F000AEC0E9FFAFC0EAFFABC0EFFF1200A6C07D
:10050000A8F0A7C0A9F0010EAA6FC0DF40EF03F06A
:10051000010EB56FB46BB36BB35107080DE3B35164
:10052000016E04E0D890B537012EFCD7B251B51555
:1005300001E0B42BB32BF0D7010EB4171C2C0AD05A
:10054000B45304E0010E016E0DD003D0000E016E15
:1005500009D008D0B45304E0000E016E03D002D0DD
:10056000010E016EDAEF02F00F0EB36FAC0EB26F38
:10057000B2C0E9FFB3C0EAFFEF50020BB46FB4534F
:10058000F7E0F7EF02F0010EB35F0DE3EA6AB30E96
:10059000E96EEF5008E0020E006E002EFED700005C
:1005A0000400EF2EF8D71200B16B1C5205E0ABC06F
:1005B000B2F0AED701C0B1F0AF6BAC0EAE6FAEC053
:1005C000E9FFAFC0EAFFEF50B111B06FAEC0E9FF75
:1005D000AFC0EAFFB0C0EFFF0F0EAD6FAD0EAC6F56
:1005E000ACC0E9FFADC0EAFFABC0EFFFBDD71B5207
:1005F0000CE01EC0B2F0B22BB207D8B403D0B3697E
:10060000C2DFFAD71DC0B3F0BEDF1BEF03F0A9C0F5
:1006100003F0A8C0E9FFA9C0EAFFEF520DE0A9C0AE
:1006200003F0A851A82BD8B4A92BE96E03C0EAFFA8
:10063000EFCFABF0B9D7EBD71200EA6AA70EE96E9D
:10064000EF5010E00F0E016EBF0E006E0400002E82
:10065000FDD7012EF9D78F0E006E002EFED70400B5
:10066000EF2EF0D71200A6C0A8F0A7C0A9F0AA6B81
:100670000DDF55EF03F0020EA66F800EA76F3FD778
:100680004F0EA26F6E0EA36FA46BA96BA20EA86F84
:10069000BEDF020EA66FFA0EA76FCFDFA62FFBD725
:1006A000020EA66F800EA76FDED74F0EA26F660EEA
:1006B000A36FA46FA56BA96BA20EA86FA8DF020E93
:1006C000A66FFA0EA76FB9DFA62FFBD77FEF03F057
:1006D000F86AD09E078E1B6A1C6A1E6A1D6A9F6B91
:1006E000A06BA16B000E7E6EC190C192C194C196A9
:1006F0007F6E6B6A6D6A196A1A6A9BD6BCD7FED781
:02070000FFD721
:020000040030CA
:0E00000000F2090A0008090003C003E00340F3
:00000001FF
;PIC18LF14K50
;CRC=06B7  CREATED="14-3-16 14:15"
